:020000040800F2
:1000000000000220750A0008C90A0008C90A000891
:10001000C90A0008C90A0008C90A0008000000004F
:10002000000000000000000000000000C90A0008F5
:10003000C90A000800000000C90A0008C90A00082F
:10004000C90A0008C90A0008C90A0008C90A000844
:10005000C90A0008C90A0008C90A0008C90A000834
:10006000C90A0008C90A0008C90A0008C90A000824
:10007000C90A0008C90A0008C90A0008C90A000814
:10008000C90A0008C90A0008C90A000800000000DF
:10009000000000000000000000000000C90A000885
:1000A000C90A0008C90A0008C90A0008C90A0008E4
:1000B000C90A0008C90A0008C90A0008C90A0008D4
:1000C000C90A0008C90A0008C90A0008C90A0008C4
:1000D000C90A0008C90A0008C90A0008000000008F
:1000E000C90A0008C90A0008C90A0008000000007F
:1000F000000000000000000000000000C90A000825
:1001000000000000C90A0008C90A0008C90A00085E
:1001100000000000000000000000000000000000DF
:10012000C90A0008C90A0008C90A0008C90A000863
:10013000C90A0008000000000000000000000000E4
:10014000000000000000000000000000C90A0008D4
:10015000C90A0008C90A0008C90A0008C90A000833
:10016000C90A0008C90A00080000000000000000D9
:10017000000000000000000000000000000000007F
:1001800000000000C90A0008000000000000000094
:10019000C90A0008C90A000810B5054C237833B90C
:1001A000044B13B10448AFF300800123237010BD4A
:1001B000580200200000000084910008084B10B590
:1001C0001BB108480849AFF300800848036803B929
:1001D00010BD074B002BFBD0BDE81040184700BFF7
:1001E00000000000849100085C02002054020020FE
:1001F00000000000154B002B08BF134B9D46A3F5D4
:10020000803A00218B460F461348144A121A02F016
:10021000A7FF0F4B002B00D098470E4B002B00D0B0
:1002200098470020002104000D000D48002802D04E
:100230000C48AFF3008002F0F5FE2000290000F02A
:10024000E3FB02F08FFB00BF00000800000002206B
:10025000000000000000000058020020700500208F
:1002600000000000000000007047000010B5064BC1
:10027000036003F118024C33044642658365543031
:1002800002F002F8204610BDC0880008A0F154001A
:10029000FFF7ECBFA0F15800FFF7E8BF10B5044628
:1002A00002F049FB204610BD2DE988484848DFF898
:1002B0003CA102F03BF807F07FFE43A3D3E9002303
:1002C00008F00AF8434B002207F0DCFE08F074F94E
:1002D000414BB0F5A07F834618601FDDDAF80000BF
:1002E00007F07CFE8046ABF5A070894607F064FEFF
:1002F00021F0004529460022384B07F0EDFF00228F
:10030000374B07F0BFFE02460B4607F009FD0246D9
:100310000B464046494607F001FD1FE022D0DAF8BF
:10032000000007F05BFE8046CBF5A070894607F021
:1003300043FE21F000470022284B394607F0CCFF4E
:100340000022274B07F09EFE02460B4607F0E8FC12
:1003500002460B464046494607F0E2FC08F074F9B5
:10036000CAF800009AED007ADFED1E7A1E48B4EE5E
:10037000E77AF1EE10FAC4BF1C4BC3ED007ADAED58
:10038000007AF5EEC07AF1EE10FA42BF174B002268
:100390001A60DAF8001000F0DFF8DAF8000007F071
:1003A0001DFE0022124B07F097FF07A3D3E900239D
:1003B00007F068FE08F028F9C1B2054801F0AAFF6D
:1003C00074E700BFAFF300800000000000E06F4062
:1003D000F802002000008440100300200040EF409D
:1003E000000014400000B442840200209C01002060
:1003F0000080564010B50446FFF738FF204602F053
:100400009AFA204610BDA0F15400F3E7A0F158007D
:10041000F0E7000010B50E4C002320460221032215
:1004200001F09EFE20460B4C0B490C4A02F07EFA6E
:1004300020460021102202F093FE2046052101F003
:10044000A7FF07481321BDE8104000F071B800BFB6
:10045000A4020020740200206D0200089801002010
:100460008402002000000000D0B52DED028BD0EDFD
:10047000058A044618EE900A08EE101A07F0AEFD41
:1004800002460B4607F04CFC064618EE100A0F46D3
:1004900007F0A4FD0022244B07F040FC02460B4667
:1004A0003046394607F0EEFD08F0CEF807EE100AA8
:1004B000F1EE687AB4EEE77AF1EE10FA08D4B4EE11
:1004C000E87AF1EE10FAD4BFF0EE477AF0EE687AEF
:1004D00017EE900A07F082FD11A3D3E9002307F07D
:1004E0001FFC08F0B1F80146204601F0E3FCB5EE30
:1004F000C08AF1EE10FA09D4F7EE007AB4EEE78A7A
:10050000F1EE10FAD8BFF0EE487A01E0DFED077A9D
:10051000C4ED077ABDEC028BD0BD00BFAFF3008005
:10052000FA7E6ABC7493583F0000E03F0000000070
:1005300010B5044601F014FC054B6361054BA36143
:1005400020464FF07C51FFF78FFF204610BD00BFC3
:100550006F12033A0000344206EE901AD0ED067A8C
:1005600090ED057AC6EEA77A10B50446F1EE476A1B
:1005700067EE277AF4EEE67AF1EE10FA08D4F4EE9C
:10058000C77AF1EE10FAD4BFF0EE676AF0EE476A70
:1005900016EE900A07F022FD07A3D3E9002307F027
:1005A000BFFB08F051F801462046BDE8104001F0BD
:1005B00081BC00BFAFF30080FA7E6ABC7493583FE1
:1005C00008B572B6962001F081FF962001F07EFFFB
:1005D000F8E700BF0F4A30B493689468B4F1006F35
:1005E0001A4604D0103030BC42F8201070470A4A36
:1005F00003F5CC7553F8044B42F8044FAB42F9D1E4
:100600004FF00052034B10309A6030BC42F820107B
:10061000704700BF00ED00E0FCFFFF1F70B50F4CFE
:100620002368DA68910715D4DA68520709D56FF0A4
:1006300004020B4E1A615D6A3368EB1AB3F57A7FD8
:1006400000D270BD00F05CFA2368356005F57A755C
:100650009D6370BD01F028FF2368E5E7D404002006
:1006600014030020244B30B51A6C244C42F00802CD
:100670001A641A6C83B002F008020192019A1A6A95
:1006800042F008021A621A6A22F008021A6201F0A5
:10069000ABF91B4A1B4B12681B492160A3FB0212DA
:1006A000920C0025013A4FF0FF3320466260E36070
:1006B0002561A560656100F0A7FF32201349FFF7AF
:1006C00089FF134B4FF480225A602946204600F0E0
:1006D00009FF2046042100F005FF23680D495A6AEE
:1006E0000A6002F57A729A63DA68284642F00402D8
:1006F000DA6003B030BD00BF00380240D4040020EF
:10070000A401002083DE1B43000C00401D060008EE
:1007100000E100E01403002008B501F065F9BDE830
:10072000084000F0D3B900BF036870B51B69002111
:10073000012204469847431C05460ED023682046F4
:100740001B690021022298472368064629461B6937
:10075000204600229847304670BD70BD084B094ABC
:10076000026010B403F58071002453F8042B824218
:1007700008BF43F8044C8B42F7D15DF8044B704737
:1007800018030020208700080A4B0B4A10B503F518
:10079000807104460260002053F8042B944208BF85
:1007A00043F8040C8B42F7D1204602F0C4F82046EF
:1007B00010BD00BF18030020208700080248022156
:1007C000032201F0B3BB00BF50050020F0B50E4678
:1007D00085B03549054604F0E4F820B9334B1B6871
:1007E00063B105B0F0BD2846314904F0DAF878B9B4
:1007F0002E4B1B6843B1012005B0F0BD0190FFF7FF
:10080000DDFF019805B0F0BDFFF7D8FF0120E8E754
:100810002846284904F0C5F810B3274B002402E00D
:100820000134402C21D053F8040F0028F8D12B7844
:100830003A2B32D0294602A801F02EFC02A801F082
:100840007DFC90B102A801F061FC88B102A801F022
:1008500067FC03464BB1194AE01C42F82430C0E75C
:10086000124B1B68ABB10220BBE74FF0FF30B8E77B
:1008700002A801F03FFC05460028F6D0036802A854
:100880009F6801F035FC324601462846B8470346CA
:10089000E0E7FFF793FF0220A3E72846084902AAF2
:1008A00004F010F8029BD5E70087000858040020E8
:1008B0001087000808870008140300201803002090
:1008C00048870008022808B50BDDC21E074B53F805
:1008D0002200002143F8221028B103685B68984782
:1008E00008BD002008BD4FF0FF3008BD18030020F0
:1008F000022870B50C4616460FDC0E4B1B680BB970
:10090000FFF75CFFA51936B114F8011B0A4801F086
:10091000B7FBAC42F8D1304670BD0338074B53F8F3
:10092000200018B103681B68984770BD4FF0FF3076
:1009300070BD00BF5804002050050020180300209F
:10094000022810B50C4609DC0D4B1B688BB10D4815
:1009500001F08AFB01232070184610BD03380A4BB2
:1009600053F8200040B103689B6898470346184637
:1009700010BDFFF723FFEAE74FF0FF33ECE700BFBE
:10098000580400205005002018030020022808B554
:1009900008DD0338064B53F8200028B10368DB68F4
:1009A000984708BD012008BD4FF0FF3008BD00BFCB
:1009B00018030020022808B508DD0338064B53F859
:1009C000200028B103681B69984708BD002008BDB6
:1009D0004FF0FF3008BD00BF18030020022808B503
:1009E00004D84FF400534B60002008BD01F0B4FF61
:1009F000092303604FF0FF3008BD00BF08B5012098
:100A000001F0B0FF704700BF08B5FFF785FEFFF7A4
:100A1000F9FFBDE80840FFF747BC00BF074A13686D
:100A20001844EFF30881884202D2106018467047DC
:100A3000034B0C221A604FF0FF307047A0010020DA
:100A40006C050020074C08B523680546986802F03D
:100A5000A5F82368D86802F0A1F805B9FEE7FFF70A
:100A6000AFFDFBE708020020002103F073BE00BFCA
:100A700002F0D2B8DFF838D0002100F004B80D4BF6
:100A80005B58435004310C480C4B42189A42FFF417
:100A9000F6AF0B4A00F003B8002342F8043B094BC1
:100AA0009A42FFF4F9AF01F07BF8FFF7A3FB704720
:100AB00000000220B8910008980100205802002090
:100AC0005802002070050020FFF7FEBF08B50B4B51
:100AD0001A6842F400721A601A6842F480621A605E
:100AE0001A6842F480721A60032000F017F80F2091
:100AF000FFF7B8FD00F024F8002008BD003C0240DC
:100B0000024B1A6801321A60704700BF18040020B7
:100B1000014B1868704700BF18040020074AD168CD
:100B20004FF6FF030B4043F0BF6300F0070043F4B0
:100B3000003343EA0023D360704700BF00ED00E0BC
:100B4000704700BF2DE9F00FD1F800C07C4E82B095
:100B5000002303E00133102B00F09C80012404FAF1
:100B600003F202EA0C049442F4D14A6822F010091C
:100B7000B9F1020F00F092805D004FF00308D0F849
:100B800000B008FA05F86FEA080802F0030A08EA5C
:100B90000B0B0AFA05FA09F1FF394BEA0A0AB9F117
:100BA000010FC0F800A040F2A280D0F80C908F682E
:100BB00008EA090807FA05F548EA0505C560D50001
:100BC000C8D5604F7D6C45F480457D64D7F844807E
:100BD00023F0030508F48048CDF8048005F1804532
:100BE00003F003080F2705F59C354FEA880807FA3C
:100BF00008FA554FDDF80490D5F80890B84229EA74
:100C00000A0900F08C8007F58067B84200F08A80FE
:100C10004E4FB84200F08A804D4FB84200F08B80B2
:100C20004C4FB8420CBF4FF0040A4FF0050A0AFAC5
:100C300008F848EA0908C5F80880D6F80080E543B6
:100C4000D7034CBF44EA080805EA0808C6F8008044
:100C5000D6F8048097034CBF44EA080805EA080860
:100C6000C6F80480D6F80880D7024CBF44EA0808CA
:100C700005EA0808C6F80880D6F80C80920203F14D
:100C8000010354BF05EA080444EA0804102BF46089
:100C90007FF464AF02B0BDE8F00F70474FEAD308AD
:100CA00000EB880803F00709D8F820704FEA89099B
:100CB0000F2505FA09FB27EA0B0A0F6907FA09F95C
:100CC0004AEA0905C8F820505D004FF00308D0F843
:100CD00000A008FA05F86FEA080802F0030908EA1C
:100CE0000A0A09FA05F94AEA0909C0F80090D0F899
:100CF0000890CF6808EA090907FA05FA49EA0A09DB
:100D0000C0F80890D0F804A0C2F300192AEA040A37
:100D100009FA03F94AEA0909C0F8049045E74FF0D7
:100D2000000886E7012707FA08F882E74FF0020A71
:100D30000AFA08F87DE74FF0030A0AFA08F878E79C
:100D4000003C014000380240000002400008024020
:100D5000000C024000100240F0B50368DE0783B0CB
:100D6000044637D5A54A916801F00C01042900F02A
:100D7000F380916801F00C01082900F0E980A04B94
:100D80009E4D00221A70FFF7C3FE41F288360746D7
:100D900005E0FFF7BDFEC01BB04200F2C8802B6823
:100DA0009903F6D4964B22791A706368002B00F0F1
:100DB0001181FFF7ADFE914D074641F2883605E0FF
:100DC000FFF7A6FEC01BB04200F2B1802B689A0369
:100DD000F6D523689F072FD5884A916811F00C0F2C
:100DE00000F0AC80916801F00C01082900F0A280AD
:100DF000E368002B00F0DD80824B804D01221A60F9
:100E0000FFF786FE064605E0FFF782FE801B64289A
:100E100000F28D802B68794A9807F5D51168F82083
:100E200090FAA0F0B0FA80F02369C0B221F0F80186
:100E300083400B43136023681A0720D4580734D427
:100E4000A369CBB16D4DAA6802F00C02082A7CD0D0
:100E5000022B6D4B4FF000021A6000F0CB80FFF7C1
:100E600057FE2C46054604E0FFF752FE401B64285F
:100E70005DD823689B01F7D4002003B0F0BD6369FF
:100E8000002B73D0614B5D4D01221A60FFF740FECD
:100E9000064604E0FFF73CFE801B642847D86B6FD2
:100EA0009B07F7D523685807CAD5544B584D1A6C81
:100EB00042F080521A641B6C03F080530193019B33
:100EC0002B6843F480732B60FFF722FE064604E094
:100ED000FFF71EFE801B642829D82B68D905F7D59B
:100EE0004C4B464D00221A70FFF712FE41F2883635
:100EF000074604E0FFF70CFEC01BB04217D82B6F6B
:100F00009A07F7D4434B227A1A70A368002B00F09B
:100F1000C780FFF7FDFD394D074641F288362B6F3C
:100F20009B078DD4FFF7F4FDC01BB042F7D9032017
:100F300003B0F0BD526856023FF55AAF2F4A12680F
:100F4000950723D5E268012A20D0012003B0F0BD27
:100F5000526855027FF513AF284A126890037FF557
:100F600039AF6268002A7FF435AFEEE7274A234D98
:100F70001360FFF7CDFD064604E0FFF7C9FD801BB7
:100F80006428D4D86B6F9F07F7D48BE71B4AF825EA
:100F9000106895FAA5F5B5FA85F522691749EDB2FD
:100FA00020F0F800AA4002430A601A077FF546AF16
:100FB00065E7144A114D1360FFF7AAFD064604E0E9
:100FC000FFF7A6FD801B6428B1D82B689907F7D4DA
:100FD000236831E7FFF79CFD084D074641F288364C
:100FE00004E0FFF795FDC01BB042A0D82B689B031F
:100FF000F7D4EEE6FFF78CFD064612E0003802401B
:10100000023802400000474260004742800E4742DB
:101010000070004070380240FFF77AFD801B6428A2
:1010200085D82B689901F7D447F6C07595FAA5F5D0
:10103000B5FA85F54FF4403191FAA1F1B1FA81F199
:101040004FF0706292FAA2F2B2FA82F2A66AD4F873
:1010500024C0D4F820E0E769E06A194B194CEDB2DE
:1010600076080CFA05F54EEA0707C9B2013E3D4382
:10107000D2B206FA01F100FA02F229431143012229
:1010800061601A60FFF744FD054605E0FFF740FD8B
:10109000401B64283FF64BAF23689A01F6D5EBE678
:1010A000FFF736FD074D074641F288362B6F98074C
:1010B0007FF5C6AEFFF72CFDC01BB042F6D936E770
:1010C00060004742003802407C4B1A6802F00F0271
:1010D0008A422DE9F0410C46054609D2CAB21A707F
:1010E0001B6803F00F038B4258D00120BDE8F0814C
:1010F00003689A0706D5724A8168906820F0F0006C
:1011000001439160DF0727D56B68012B79D09A1EC8
:10111000012A6B4A126840F287809107E5D5684F33
:10112000BA6822F003021343BB60FFF7F1FC6B685F
:10113000012B06467CD0022B00F08880032B65D063
:1011400041F2883804E0FFF7E3FC801B404565D896
:10115000BB6813F00C0FF6D1584BE2B21A701B6843
:1011600003F00F03A342C0D12B685A0706D5544A97
:10117000E968906820F4E050014391601B0707D5AF
:101180004F4B29699A6822F4604242EAC1029A6090
:101190000F20FFF767FA0020BDE8F08103689F0782
:1011A00006D5474A8168906820F0F00001439160BD
:1011B000DE07DAD56B68012B56D09A1E012A404A09
:1011C00012682ED9910790D53D4EB26822F00302E5
:1011D0001343B360FFF79CFC6B68012B044648D0B7
:1011E000022B54D0032B60D041F2883704E0FFF784
:1011F0008FFC001BB84211D8B36813F00C0FF6D166
:10120000B2E72F4A1268960389D46EE741F2883418
:10121000BB68FFF77DFC801BA042F9D90320BDE825
:10122000F0819001D0D460E790013FF578AF5CE7A2
:1012300041F2883804E0FFF76BFC801B4045EDD895
:10124000BB6803F00C03042BF5D185E741F2883825
:1012500004E0FFF75DFC801B4045DFD8BB6803F06E
:101260000C03082BF5D177E7154A12689403ABD429
:101270003BE741F2883704E0FFF74AFC001BB84225
:10128000CCD8B36803F00C03042BF5D16CE741F222
:10129000883704E0FFF73CFC001BB842BED8B368B7
:1012A00003F00C03082BF5D15EE741F28835B368F3
:1012B000FFF72EFC001BA842F9D9AFE7003C024023
:1012C000003802401E4B9A6802F00C02042A10B447
:1012D00032D0082A03D01B485DF8044B7047586889
:1012E0005A685C6812F4800F00F03F0147F6C07244
:1012F00092FAA2F2B2FA82F247F6C07314BF124811
:101300001048D2B22340D3400D4AB0FBF1F000FBAD
:1013100003F052684FF4403393FAA3F3B3FA83F324
:1013200002F44032DBB222FA03F301335B00B0FB7C
:10133000F3F05DF8044B704703485DF8044B7047C9
:10134000003802400024F40000127A0008B5FFF7CC
:10135000B9FF094BF0229B6892FAA2F2B2FA82F22C
:1013600003F0F003D2B223FA02F20449044B8A5C80
:10137000D040186008BD00BF003802405887000800
:10138000A401002008B5FFF7E1FF084A4FF4E0533D
:10139000926893FAA3F3B3FA83F302F4E052DBB258
:1013A00022FA03F3024AD35CD84008BD0038024059
:1013B0005887000808B5FFF7C9FF084A4FF4604393
:1013C000926893FAA3F3B3FA83F302F46042DBB2B8
:1013D00022FA03F3024AD35CD84008BD0038024029
:1013E00058870008036A23F00103F0B48F680E6881
:1013F0000362036A104D4268846923F0020324F0FB
:101400007304A84243EA070344EA060406D0496885
:10141000426084614163F0BC03627047CF688E69AB
:101420004D6923F0080322F440723B43354323F017
:1014300004032A43EBE700BF00000140036A23F4E2
:101440008073F0B48F680E680362036A114D4268BE
:10145000C46923F4007324F07304A84243EA072309
:1014600044EA060406D049684260C461C163F0BC26
:1014700003627047CF684E698D6923F4006322F4DC
:10148000405243EA072342EA061223F4806342EA09
:101490000512E8E700000140036A23F48053F0B42A
:1014A0008F680E680362026A0C4D4368C46922F4B7
:1014B000005224F4E644A84242EA073244EA0624F1
:1014C00006D049684360C4610164F0BC02627047A1
:1014D0004D6923F4804343EA8513F2E7000001409D
:1014E000704700BF03680E4A186A10B4012404FA5A
:1014F00001F120EA01001862186A934241EA0001F2
:10150000196207D01A685DF8044B42F0010200200E
:101510001A6070475A6C42F400425A64F2E700BF06
:1015200000000140704700BF03680E4A186A10B4FB
:10153000012404FA01F120EA01001862186A9342BA
:1015400041EA0001196207D01A685DF8044B42F0C5
:10155000010200201A6070475A6C42F400425A643B
:10156000F2E700BF00000140264A0368904230B411
:1015700034D0B0F1804F20D0A2F57C4290421CD0F4
:1015800002F58062904218D002F58062904214D039
:1015900002F59A32904214D002F58062904210D047
:1015A00002F5806290420CD08C680A6803600123C7
:1015B000C462826230BC436170474A6823F07003A2
:1015C0001343CD688C680A6823F440732B4303608F
:1015D0000123C462826230BC436170474C68CA68B0
:1015E00023F070031C4324F44074224302608B6890
:1015F000C3620B6883620B6903630123436130BCE0
:10160000704700BF0000014010B50446B0B190F82B
:10161000393003F0FF0263B12146022351F8040B75
:1016200084F83930FFF7A0FF012384F83930002017
:1016300010BD80F83820FFF753FFEDE7012010BD03
:1016400010B50446B0B190F8393003F0FF0263B131
:101650002146022351F8040B84F83930FFF784FF48
:10166000012384F83930002010BD80F83820FFF7BE
:1016700059FFEDE7012010BD036A23F01003F0B419
:101680008F680E680362036A114D4268846923F013
:10169000200324F4E644A84243EA071344EA06245C
:1016A00006D04968426084618163F0BC0362704780
:1016B000CF684E698D6923F0800322F4406243EACB
:1016C000071342EA860223F0400342EA8502E8E774
:1016D0000000014038B590F83830012B04460D4623
:1016E00028D00121022380F8381080F839300C2AE4
:1016F00019D8DFE802F00718181834181818471816
:101700001818210029460068FFF76CFE23682A6933
:10171000996941F008019961996921F00401996181
:1017200099690A439A610123002084F8393084F8CA
:10173000380038BD022038BD29460068FFF7ACFEEE
:1017400023682969DA6942F40062DA61DA6922F40D
:101750008062DA61DA6942EA0122DA61E3E7294666
:101760000068FFF789FF236829699A6942F40062DB
:101770009A619A6922F480629A619A6942EA012226
:101780009A61D0E729460068FFF758FE23682A6966
:10179000D96941F00801D961D96921F00401D96101
:1017A000D9690A43DA61BEE7036804201A6A00FABD
:1017B00001F122EA01021A621A6A114319625A6C93
:1017C00042F400425A641A6842F001021A60002092
:1017D000704700BF2DE9F0410568C1682B69C269F7
:1017E000D0F810E08768466923F440531943044653
:1017F00080692961EB684EEA070123F416433143FF
:1018000023F00C0311430B43EB606B6923F440732B
:101810000343B2F5004F6B61594B3CD09D4200F041
:101820008C8003F580639D4200F08780FFF7AAFD5E
:101830006368544E00EB80009B0000EB8000B0FB1F
:10184000F3F7FFF79FFD636800EB80009B0000EB60
:101850008000B0FBF3F8FFF795FD636800EB8000B4
:1018600000EB80009B00B0FBF3F3A6FB0727A6FB71
:1018700003237F095B0964203F0100FB13884FEAC3
:10188000081808F13208A6FB0836C6F3431637439A
:10189000AF60BDE8F0819D422DD003F580639D428D
:1018A00029D0FFF76FFD6368364E00EB80005B00C8
:1018B00000EB8000B0FBF3F7FFF764FD636800EB1B
:1018C00080005B0000EB8000B0FBF3F8FFF75AFDEF
:1018D000A6FB072763687F0900EB80003F0100EB50
:1018E00080005B00B0FBF3F3A6FB03235B096422DB
:1018F00002FB1388C3E7FFF75DFD6368214E00EB31
:1019000080005B0000EB8000B0FBF3F7FFF752FDB7
:10191000636800EB80005B0000EB8000B0FBF3F835
:10192000FFF748FDA6FB072763687F0900EB8000EF
:101930003F0100EB80005B00D4E7FFF73BFD6368ED
:10194000104E00EB80009B0000EB8000B0FBF3F733
:10195000FFF730FD636800EB80009B0000EB800028
:10196000B0FBF3F8FFF726FDA6FB072763687F09A6
:1019700000EB80003F0100EB80009B00B2E700BF5E
:10198000001001401F85EB51704700BF10B50446A1
:1019900040B390F8393003F0FF02F3B1236802221C
:1019A00084F83920DA6822F40052DA602046FFF722
:1019B00011FF23681A6922F490421A615A6922F0D1
:1019C0002A025A61D868002240F400500121D860F0
:1019D000E263104684F8391010BD80F83820FFF714
:1019E000D3FFDBE7012010BD164B9A6802F00C0212
:1019F000042A24D0082A0AD0134A124B13489968A3
:101A0000134BC1F30311415CCA401A607047586818
:101A100059685B6842024CBF0E4A0B4A01F03F0115
:101A2000C3F38813B2FBF1F202FB03F2054B5B68D0
:101A3000C3F3014301335B00B2FBF3F2DDE7054A78
:101A4000DBE700BF003802400024F400688700088C
:101A5000A401002000127A00214A224B116C30B5FB
:101A600041F080511164126C95B002F080520192E5
:101A7000019A1A6822F4404242F400421A601B683C
:101A800003F4404302930123029A089300B1052313
:101A90000993C0210423082202244FF4800508A8DA
:101AA000109312930E940F9511911392FFF754F91E
:101AB000034610B1002015B030BD4FF480520F2501
:101AC00003A8032104940593079303950692FFF757
:101AD000FBFAD0F1010038BF002015B030BD00BFC7
:101AE0000038024000700040234A244B116CF0B5CE
:101AF00041F080511164126C95B002F08052019255
:101B0000019A1A6822F4404242F400421A601B68AB
:101B100003F4404302934FF0010E08230024C02138
:101B2000042203261027022508A810931393DDF83A
:101B300008C00896CDF82CE009940F940C970E95E8
:101B400011911292FFF708F9034610B1204615B023
:101B5000F0BD4FF4805231460F2403A8049505933D
:101B6000079303940692FFF7AFFAD0F1010038BF54
:101B7000002015B0F0BD00BF0038024000700040EA
:101B800008B50120FFF768FF00B108BDFFF764FF4B
:101B90000028FAD1FFF7A8FF0028F6D1FEE700BF22
:101BA000174B1848D3F8882070B542F47002164CD1
:101BB000C3F888202268154E154D002142F001021D
:101BC0002260A160226822F0847222F480322260B6
:101BD000666026684FF0006226F480262660E16089
:101BE0009A600560FEF772FFFFF7CAFF236A43F0B1
:101BF00008032362236A23F00803236270BD00BF39
:101C000000ED00E0A4010020003802401030002464
:101C10000024F40030B507EE901A244A03681360DC
:101C2000F5EEC07AF1EE10FA89B03CD4B7EE007A46
:101C3000F4EE477AF1EE10FAC8BFF0EE477AD0ED35
:101C4000026A027C457CB8EE667A002367EE277A4A
:101C50006024FCEEE77A013AC0ED037ACDED027A1A
:101C6000019403930493059306930793032A0ED8D4
:101C7000DFE802F00F021311042401A90B482246E9
:101C8000FFF728FD214609484DB1FFF78DFD09B04A
:101C900030BD0024F1E70C24EFE70824EDE7FFF75F
:101CA00043FC09B030BDDFED027AC8E71C04002018
:101CB00000000000F8B58268254C036823600546E3
:101CC0000E46002A3ED007EE102AF8EE477A90ED35
:101CD000037AF8EE476AB7EE007AC6EEA77AF4EE1A
:101CE000C77AF1EE10FAC8BF17EE107A2CDD196A28
:101CF00041F211120A4042B9196A40F244420A40C4
:101D00001AB91A6822F001021A60FFF76DFE114A33
:101D1000114B11680E48A3FB0121890C0023721E90
:101D20000139E2602361A3606160FFF789FC284606
:101D30003946FFF76FFF2368AE601A6842F0010270
:101D40001A60F8BDDFED057A17EE907ACFE700BF95
:101D50001C040020A401002083DE1B4300000000BF
:101D600070B50D4688B004464749284600F068FB28
:101D700045492060284600F07DFB411C06466AD09C
:101D80002368C6F3C3222274C6F3C0365A1C667495
:101D900067D03E4A934244D0B3F1804F29D03C4AA9
:101DA00093424AD102F50D32116C41F002011164E7
:101DB000126C02F002020392039A364A934209D14E
:101DC000354B5A6C42F480225A645B6C03F48023D6
:101DD0000793079B28462C4900F0FEFA0023257143
:101DE000A360E360204644F62061FFF763FF08B07C
:101DF00070BD294A116C41F001011164126C02F0AE
:101E000001020292029A254A9342D6D1224B5A6C81
:101E100042F400325A645B6C03F400330693069B71
:101E2000D8E702F59C32516C41F001015164526CCB
:101E300002F001020192019AE5E7194A934215D195
:101E4000154B1A6C42F004021A641B6C03F0040375
:101E50000493049BBEE713481349302200F070FA44
:101E60008EE7124800F082FA236892E7104A934204
:101E7000C9D1094B5A6C42F480325A645B6C03F44A
:101E800080330593059BA5E7F88A00080000014010
:101E90000004004000480140003802400044014076
:101EA000000800407887000894870008FC87000835
:101EB0000040014006EE901A9FED087A26EE877AE0
:101EC000D0ED026ABDEEC77AF8EE667AB8EEC77A50
:101ED000C7EE277A17EE901AFFF79CBE00247449CC
:101EE000F0B4114B90F9197006688568C4680169EF
:101EF00042691E6001374FF000065D609C60D9604A
:101F00001A619E610AD090F91820074801320CBF6F
:101F100004220C22F0BC5A61FFF738BD08220248A7
:101F20005A61F0BCFFF732BD10050020F0B5044641
:101F300085B008460E463C49154600F081FA3B49FB
:101F40000746284600F07CFA0146384600F066FA5B
:101F5000411C206061D0364B984247D003F5806326
:101F6000984236D0A3F55043984225D030462E49AA
:101F700000F032FA28462D4900F02EFA721C03D0E8
:101F80003046012100F0A0FB6B1C03D02846012144
:101F900000F09AFB00234FF41652A260E360236125
:101FA0006361267665762046FFF79AFF214A23680B
:101FB000934228D005B0F0BD1F4B1A6C42F400329A
:101FC0001A641B6C03F4003302930123029A6360CA
:101FD000CCE7194B5A6C42F020025A645B6C03F058
:101FE00020030393039B05236360BFE7124B5A6CE6
:101FF00042F010025A645B6C03F01003019300235B
:10200000019A6360B2E70D4B0D4821461C22012462
:102010001C6001F09AF805B0F0BD0A480A49502248
:1020200000F08EF9206896E7608C0008A48A00080A
:1020300000100140004400400038024058040020D5
:1020400050050020208800083C88000810B4044B8C
:1020500044680448196040F824205DF8044B704738
:102060007C0400205C040020026813689B06FCD5F9
:10207000024B50681A60C0F308007047100500203A
:10208000026813681B06FCD5024BC1F308015160BE
:102090001A6070471005002038B5002303604360C4
:1020A0000A782F2A044601D0204638BD4A78002AF3
:1020B000FAD0481C20604A782F2A14D0B2B18D1C67
:1020C000194600E052B125602A782F2A2B4601F1EB
:1020D000010105F10105F5D10133236000F09EFBFC
:1020E0006060204638BD19460346F5E71146F5E71E
:1020F0000068704710B50446406828B100F0ACFB9A
:10210000012801D1606810BD002010BD406808B5ED
:1021100028B100F0A1FBD0F1010038BF002008BDBC
:1021200010B50446406830B100F096FB18B96068FD
:1021300008B1043810BD002010BD00BF4068003059
:1021400018BF0120704700BF00F058B8A0F154003C
:10215000FFF7FABF00F056B8A0F15400FFF7FABF3E
:1021600038B504461D4600F025F8294604F1540010
:1021700000F0AEF8054B03F1080103F120025433DF
:1021800021606265A365204638BD00BFB88800089D
:1021900001EB410108B5CB002033C1184A6922B1D7
:1021A000C05808B10431904708BDC358002BFBD07C
:1021B000984708BD38B504460E4B0360251D002323
:1021C0004FF41650206563602846A360E3602361E6
:1021D0006361A3612377637723626363A363E3642B
:1021E000FFF7A4FE284622460349FFF72FFF2046AB
:1021F00038BD00BFB0880008912100080430FFF707
:1022000033BF00BF10B504300C46FFF739FF20463E
:1022100010BD00BF00207047F8B58E18B1420F46C0
:1022200005460FD00C4601E0A64209D02B6814F8F1
:10223000011B5B6A284698470130F5D1E01BF8BDC9
:10224000F01BF8BD0020F8BDF8B58E18B1420F465E
:1022500005460FD00C4603E004F8010BA64207D058
:102260002B6828469B6A9847431CF5D1E01BF8BDB4
:10227000F01BF8BD0020F8BD00207047002070471B
:10228000002070470020704710B5074B03F108028B
:102290003C33044680E80C00406900F0C9FB20464E
:1022A00000F0DCFA204610BD18890008A0F10400F7
:1022B000FFF7EABF10B50446FFF7E6FF204600F03F
:1022C0003AFB204610BD00BFA0F10400FFF7F2BFAB
:1022D00010B584B0044600F0F1FA0B4B0B4903F142
:1022E000080000223C3384E80900626101A822460C
:1022F00002F0C4FA064901A800F082FD6061FEF711
:10230000B3FB204604B010BD1889000848870008B8
:102310006089000838B504460D46406900F03EFC6F
:1023200028466169BDE8384000F0AABD10B50446F2
:10233000406900F033FC6069BDE81040FEF798BBCF
:1023400010B5084B1B6882B0DC6800920B46024651
:102350000549204600F05EFD02B0BDE81040FEF7E2
:102360002FB900BF08020020648900080FB400B52F
:10237000064B83B004AA1B6852F8041BD86801926C
:1023800001F0C0F8012000F0EDFA00BF08020020C3
:1023900038B50D46044600F0B7F8013511D094F970
:1023A000003001330ED06268E368120420461A60E0
:1023B000012100F0C3F820460021BDE8384000F0BC
:1023C000B9B838BD024803493422FFF7B9FFEAE73C
:1023D00098890008B0890008431C10B5044619D03C
:1023E00091F90030581C04D10FE011F90C3F5A1C30
:1023F0000BD09C42F9D12046896800F035F920467F
:102400000021BDE8104000F05FB90348BDE810406E
:10241000FFF7ACBF10BD00BF208A0008884208B596
:102420000AD0431C07D0013106D00448FFF79EFFB5
:102430004FF0FF3008BD084608BD00BF348A0008D1
:1024400008B5431C0DD091F900305A1C04D109E0A5
:1024500011F90C3F5A1C05D09842F9D14868411C2B
:1024600000D008BD0248FFF781FF4FF0FF30F8E7CA
:10247000488A000808B5431C0DD091F900305A1C59
:1024800004D109E011F90C3F5A1C05D09842F9D14A
:102490008868411C00D008BD0248FFF767FF4FF075
:1024A000FF30F8E7688A0008014800F01BBA00BF57
:1024B0009C8A000838B5054600F040F9044600F053
:1024C0003DF9001BA842FAD338BD00BF4FF47A7320
:1024D00003FB00F0FFF7EEBF431C10B5044608D025
:1024E0002046002100F0C0F804F00F040120A040B5
:1024F00010BD034803492722FFF722FFF0E700BF82
:10250000B48C0008C88C000870B505464B1C0C46FE
:1025100029700DD0C1F3031000F030F806462046B4
:10252000FFF7DAFF06F1100318366860AB60EE6063
:1025300070BD00BF90F9000000F0C6B838B5054680
:1025400090F90000431C0C460BD0012C04D0002154
:10255000BDE8384000F088B82146BDE8384000F0BA
:1025600083B8044804494622FFF7EAFE95F90000C3
:10257000EBE700BF98890008C88C000800B587B059
:10258000072859D8DFE800F012202E3C4A5858049A
:102590002D4B2E481A6B42F080021A631B6B03F01E
:1025A00080030593059B07B05DF804FB264B284884
:1025B0001A6B42F001021A631B6B03F001030093D4
:1025C000009B07B05DF804FB1F4B22481A6B42F0DA
:1025D00002021A631B6B03F002030193019B07B015
:1025E0005DF804FB184B1C481A6B42F004021A6396
:1025F0001B6B03F004030293029B07B05DF804FB1E
:10260000114B16481A6B42F008021A631B6B03F059
:1026100008030393039B07B05DF804FB0A4B1048C3
:102620001A6B42F010021A631B6B03F01003049341
:10263000049B07B05DF804FB0A48FFF797FE0020F3
:1026400007B05DF804FB00BF00380240001C0240E8
:10265000000002400004024000080240000C02405A
:1026600000100240648D000830B5431C87B0054659
:102670000C461CD0C5F30310FFF780FF05F00F05D3
:1026800004F00F0201210D4B01FA05F553F8223039
:1026900001950322C4F3021501A9C4F3C3140293E4
:1026A000039505940492FEF74DFA07B030BD044837
:1026B00004497D22FFF744FEDCE700BF308D0008AF
:1026C000B48C0008888D000838B5431C04460D46BC
:1026D00018D0C4F30310FFF751FF04F00F04C268D1
:1026E000022D4FEA44044FF0030198BFA54001FAC0
:1026F00004F422EA0404C460C26888BF00251543BC
:10270000C56038BD02480349A222FFF719FEE0E781
:10271000B48C0008888D0008054B186800B170471C
:10272000044A0549116001221A60FDF79BBF00BFF2
:10273000C404002088040020000C004008B5044BAD
:102740001B680BB9FFF7E8FF024B586A08BD00BFD2
:10275000C4040020000C0040034B1B685863DA6877
:1027600042F00202DA60704788040020034B1B68C5
:10277000DA6822F00202DA60704700BF88040020A5
:10278000024B1B686FF002021A6170478804002038
:102790008368094A026053B1084B1A68824201D12A
:1027A00006E01A4653688342FBD143685360704782
:1027B00042681A60704700BFF88D0008C804002006
:1027C00083680C4A10B50446026053B10A4B1A687C
:1027D000904201D10AE01A4653689C42FBD16368DB
:1027E0005360204600F0A7F8204610BD42681A60EA
:1027F000F7E700BFF88D0008C8040020054B0273FE
:10280000002281600360426019B1034B1A68426084
:1028100018607047F88D0008C80400200D4B70B593
:102820001C6806460D4614B912E0646884B1A368BA
:1028300031462A461846002BF7D002F0C4F800288B
:10284000F3D1A06802F0B7F8A842EED1204670BDDF
:10285000002070BDC8040020007B704710B5074BF6
:10286000044603F108023433226040F8043FFFF7C6
:102870008FFF2046FDF772FF204610BD008E000836
:10288000A0F10400FFF7EABF094B10B5044603F1BD
:1028900008023433226040F8043FFFF779FF2046F6
:1028A000FDF75CFF204600F046F8204610BD00BF53
:1028B000008E0008A0F10400FFF7E6BF10B5074B3B
:1028C0000446002240F8043BFFF798FF044B03F155
:1028D0000802343384E80C00204610BD208700082D
:1028E000008E000838B50368DB68044698476368C3
:1028F0005B6883B122681D6853689847281A0028CE
:1029000062680CDC50681168836853600029F0D05D
:1029100040688847EBE723689B68984738BD236881
:1029200052681B691068984738BD00BF03460846C7
:10293000194600F003B800F0F1BB000038B50546B9
:1029400004480C46134620B1022029462246AFF324
:10295000008038BD00000000014B1868704700BFC0
:102960000802002008B5074B044613B10021AFF35D
:102970000080054B1868836A03B198472046FEF72C
:1029800061F800BF00000000A48E000870B5054685
:102990000C4609B9002070BD18B183690BB900F06D
:1029A00083F9204B9C4201D16C6808E01E4B9C428D
:1029B00001D1AC6803E01D4B9C4208BFEC68B4F940
:1029C0000C30002BE6D02846214600F039F8236B66
:1029D000064633B12846216A98470028B8BF4FF011
:1029E000FF36A3891B0603D52846216900F0C0FBEA
:1029F000616B41B104F14403994202D0284600F0D2
:102A0000B7FB00236363A16C21B1284600F0B0FB43
:102A10000023A36400F0B2F90023A38100F0AFF912
:102A2000304670BD408E0008608E0008808E000821
:102A3000024B01461868FFF7A9BF00BF080200203B
:102A40008A892DE9F041054610070C4657D44B689A
:102A5000002B02DC0B6C002B18DDE66AB6B102F429
:102A60008052002392B22F682B600AB1626D10E091
:102A7000216A28460123B047411C024609D12B6830
:102A80003BB11D2B01D0162B47D12F600020BDE894
:102A9000F081A3895B0705D56368D21A636B0BB11C
:102AA000236CD21AE66A216A00232846B047461CE6
:102AB000A38905D12A681AB11D2A01D0162A19D175
:102AC00000226260D9042269226004D5421C01D12F
:102AD0002B6803B96065616B2F600029D6D004F1C3
:102AE0004403994202D0284600F042FB0020606374
:102AF000BDE8F08143F04003A381BDE8F0810F6998
:102B0000002FC3D093070E6808BF4B690F6018BF32
:102B10000023C7EB06088B6012E0A38943F0400353
:102B2000A3814FF0FF30BDE8F0812846216AA66AF4
:102B30003A464346B0470028EFDD0744C0EB08089B
:102B4000B8F1000FF1DCA1E738B50B6905460C467A
:102B5000DBB118B183690BB900F0A6F80C4B9C42AD
:102B600001D16C6808E00B4B9C4201D1AC6803E0DA
:102B7000094B9C4208BFEC68B4F90C302BB12846D5
:102B80002146BDE83840FFF75BBF002038BD00BFDD
:102B9000408E0008608E0008808E0008014620B933
:102BA000044B0549186800F01FBA044B1868FFF77A
:102BB000CBBF00BFA48E0008492B000808020020EC
:102BC00038B50C46054618B183690BB900F06CF8AE
:102BD0000E4B9C4201D16C6808E00D4B9C4201D128
:102BE000AC6803E00B4B9C4208BFEC686368013B98
:102BF000002B636005DA28462146BDE8384001F025
:102C000011BD23685A1C2260187838BD408E000818
:102C1000608E0008808E0008024B01461868FFF79E
:102C2000CFBF00BF08020020014900F0DDB900BF9E
:102C3000492B0008002310B50446036043608360FD
:102C400081814366C28103614361836119465C30BF
:102C5000082200F085FA054B6362054BA362054B21
:102C6000E362054B2462236310BD00BF19490008CD
:102C70003F490008774900089B49000870B5682360
:102C80004D1E5D430E4605F1740100F0B5FA044691
:102C900040B1002180E842000C30A06005F16802DC
:102CA00000F05EFA204670BD836910B5044633BB60
:102CB0008364C3640365124B124A1B6882629842A4
:102CC00004BF0123836100F01FF86060204600F01C
:102CD0001BF8A060204600F017F80421E0600022F5
:102CE0006068FFF7A7FFA06809210122FFF7A2FF94
:102CF000E06812210222FFF79DFF0123A36110BDAE
:102D0000A48E0008292C0008F8B51B4B1E68B36977
:102D1000074613B93046FFF7C7FF4836B4687368F3
:102D2000013B04D4B4F90C5075B16834F8E733684A
:102D30002BB938460421FFF7A1FF306008B136688F
:102D4000ECE70C233B60F8BD4FF6FF73E3810123F2
:102D5000A38165662560A560656025616561A561E3
:102D600004F15C002946082200F0FAF96563A563C6
:102D7000A564E5642046F8BDA48E0008704770473E
:102D8000F7B50F46114601AA054603F0F1FC0646C9
:102D900008B9002029E02846FFF7B6FF04460028BE
:102DA000F7D028463946019A4FF4DB7301F05CFBFB
:102DB000002806DA0025FFF7E1FFA581FFF7DFFF16
:102DC000E7E70B4B63620B4BA3620B4BE3620B4BCE
:102DD0002363F305E081A681246205D528462146B8
:102DE0000022022300F056F8204603B0F0BD00BFD9
:102DF000194900083F490008774900089B49000825
:102E00000A460349034608681946FFF7B9BF00BFE1
:102E1000080200200EB403B5014603AB054853F881
:102E2000042B0068019300F065FA02B05DF804EB32
:102E300003B070470802002070B50E4614460546E0
:102E400018B183690BB9FFF72FFF0A4B9C4201D1E0
:102E50006C6808E0084B9C4201D1AC6803E0074B6A
:102E60009C4208BFEC68284631462246BDE87040C7
:102E700001F00CBB408E0008608E0008808E0008B8
:102E80000A460349034608681946FFF7D5BF00BF45
:102E90000802002000F000B82DE9F8430C469046E7
:102EA0001E46054618B183690BB9FFF7FDFE3D4B81
:102EB0009C4201D16C6808E03B4B9C4201D1AC685C
:102EC00003E03A4B9C4208BFEC68A38903F4847387
:102ED000B3F5847F03D128462146FFF735FEE76A24
:102EE0000FB91D232BE0012E04D0022E2BD056B398
:102EF000162324E028462146FFF726FEA28902F485
:102F0000805292B20AB1606D05E0216A28463346CC
:102F1000B847411C14D0A3895A0706D56368C01A64
:102F2000636B4BB1236CC01A06E01B0704D5236802
:102F300013B122699B1A18448044002603E02B60D9
:102F40004FF0FF392BE023691BB92846214600F0DA
:102F50008FF828462146FFF7F7FD81460028EFD17C
:102F60002846216A42463346B8470130E8D0616BB3
:102F700041B104F14403994202D0284600F0F8F828
:102F80000023636323692360A389002123F4026380
:102F90006160A38104F15C00082200F0E1F848467A
:102FA000BDE8F883408E0008608E0008808E00081F
:102FB0002DE9F041884600F1480400268CB1A5684F
:102FC0006768013F0BD4AB89012B06D9B5F90E30E8
:102FD000013302D02846C04706436835F1E724682C
:102FE000ECE73046BDE8F0812DE9F843804689469C
:102FF00000F14804002694B1A5686768013F0CD42D
:10300000AB89012B07D9B5F90E30013303D0404607
:103010002946C84706436835F0E72468EBE73046A1
:10302000BDE8F88370B50E4B0E4CE41AA4100025D1
:103030001E46A54204D056F8253098470135F8E7DA
:1030400005F052FB084C094BE41AA41000251E465B
:10305000A54204D056F8253098470135F8E770BDF1
:1030600048020020480200205002002048020020B0
:10307000F0B58B899D0791B006460C4626D4B1F970
:103080000E10002909DAA38913F0800F4FF0000514
:1030900014BF40274FF480670DE001AA03F0A0FBA6
:1030A0000028F0DB029D05F47045A5F500514D4266
:1030B0004D414FF480673046394600F09DF860B9C5
:1030C000A3899A051DD443F00203A38104F14703A9
:1030D000236023610123636113E00B4BB362A38977
:1030E000206043F08003A381206167614DB13046C9
:1030F000B4F90E1003F092FE18B1A38943F0010356
:10310000A38111B0F0BD00BF292C0008024B01467D
:10311000186800F071B800BF08020020024B014699
:10312000186800F025B800BF0802002010B5C9B229
:1031300002449042034606D01C788C4200F1010004
:10314000F7D1184610BD002010BD10B5431E0A442B
:10315000914204D011F8014B03F8014FF8E710BD7C
:1031600002440346934202D003F8011BFAE770477A
:1031700030B500293DD051F8042C0B1F1D49002A01
:10318000B8BF9B180A680C4612B95A600B6030BD74
:1031900093420DD219685818904201BF5A585218DC
:1031A0001A6042685A60236030BD994203D80A46CB
:1031B00051680029F9D1146815199D420AD11B687C
:1031C0002344D0188842136013D108680344136065
:1031D0004B680DE002D90C23036030BD1C68181940
:1031E000884204BF08684968596004BF0019186024
:1031F000536030BDD004002070B5CC1C24F0030413
:1032000008340C2C38BF0C24002C064603DA0C239F
:103210003360002070BD8C42F9D3204A13681046F9
:103220001946A1B10A68121B0ED40B2A03D90A60F1
:103230008B188C501FE08B420DBF5A684A685A6049
:10324000026018BF0B4616E00B464968E9E7144DCB
:103250002B681BB9304601F03BFA28603046214606
:1032600001F036FA421C0346D1D0C51C25F00305F7
:1032700085420AD11C6003F10B001A1D20F00700E3
:10328000821A0AD05142995070BD3046E91A01F0B5
:103290001FFA0130BBD02B46ECE770BDD0040020F4
:1032A000CC0400209368013B002B10B5936009DA31
:1032B0009469A34202DBCBB20A2B03D1BDE81040D4
:1032C00002F022BB1368581C10601970C8B210BD00
:1032D000F8B506460F461446D518AC4208D030461D
:1032E00014F8011B3A46FFF7DDFF431CF5D100E05F
:1032F0000020F8BD2DE9F0439DB00D4690460393A4
:10330000064618B183690BB9FFF7CEFC754B9D4299
:1033100001D1756808E0744B9D4201D1B56803E0A6
:10332000724B9D4208BFF568AB891C070AD52B6913
:1033300043B10023099320238DF8293030238DF8E1
:103340002A3041E03046294602F044FB0028F0D004
:103350004FF0FF30C2E0039A111D12680391002A5A
:10336000BBBF524243F0020307920792B8BF0493D7
:10337000013423782E2B7BD0DFF8808121784046E2
:103380000322FFF7D3FE38B1049AC8EB00004023B4
:103390008340134304930134217855488DF8281055
:1033A000062204F10108FFF7C1FE002800F0858025
:1033B000504B002B78D1039B073323F007030833CE
:1033C0000393099B3B44099343461C4613F8012B86
:1033D0001AB9B4EB08090ED002E0252AF5D1F8E7B6
:1033E0003046294642464B46FFF772FF013070D007
:1033F000099B4B4409932378002B6AD000234FF09C
:10340000FF3204930793059206938DF853301A9375
:1034100004F101084446DFF8E89021784846052287
:10342000FFF784FE08F10108049B30B1C9EB0000EE
:103430000122824013430493ECE7D80644BF2022C4
:103440008DF85320190744BF2B228DF85320227882
:103450002A2A80D0079923461C4601332278303A25
:10346000092A03D80A2000FB0121F5E7079180E72C
:1034700063782A2B0AD1039B1A1D1B680392002B29
:10348000B8BF4FF0FF330234059375E7611C00228B
:103490000C4601312378303B092B03D80A2000FB6E
:1034A0000232F5E7059267E703AB0093304604A9C3
:1034B0002A46114B00F0C4F807E003AB00933046F6
:1034C00004A92A460C4B00F077FB421C07467FF408
:1034D00078AFAB895B063FF53BAF09981DB0BDE8FF
:1034E000F08300BF408E0008608E0008808E0008C8
:1034F000B28E000841360008D1320008AE8E0008B6
:10350000A88E000830B51346044A05460C461068DC
:1035100029462246BDE83040FFF7ECBE08020020F5
:103520002DE9F04788B0002B149F1299109EDDF80A
:103530004CA01D46B8BF05F1004327F02007B6BFD9
:103540001D4600232D231446B8BF1446462F0B708A
:1035500003D0452F03D1013601E0032300E002230D
:103560008DE8480406AB039307AB049322462B4631
:1035700002F03AFB472F804602D1119BDB0726D58C
:10358000462F08EB060911D198F80030302B0AD1EC
:10359000204629460022002304F0DCFF18B9C6F1BA
:1035A0000106CAF80060DAF800309944204629463E
:1035B0000022002304F0CEFF08B1CDF81C90079B39
:1035C0004B4504D25A1C079230221A70F7E7079B2A
:1035D000159AC8EB03034046136008B0BDE8F087B6
:1035E00073B503460029B8BF494203F8022BB4BFA4
:1035F0002D222B220929427019DD0DF107042646E0
:103600000A2291FBF2F502FB15113031092D04F865
:10361000011D2946F4DC3031651E04F8011CB54259
:103620001A460AD215F8012B03F8012BF7E73024CC
:103630001A46214402F8024B5970101A02B070BDAC
:103640002DE9F04F91B08B4615461E461A9F044651
:1036500003F0F4FBD0F800A0504601F0ACF90023D1
:103660000E933B680990073323F0070303F1080228
:103670009BF818803A60D3E90023CBE91223DBE9F9
:10368000120100F0FBFF0128DBE9120119D1002231
:10369000002304F069FF10B12D238BF84330A04BB9
:1036A000A04FB8F1470F88BF1F460323CBF8103057
:1036B000DBF8003023F00403CBF800304FF00009B2
:1036C000A1E000F0DBFFDBF8003048B9964A974FE5
:1036D000B8F1470F88BF17460322CBF81020E9E75F
:1036E000DBF804209BED127B571C8DED0A7B01D18A
:1036F000062209E0B8F1670F02D0B8F1470F05D1F3
:10370000002A40F0C7810122CBF80420DBF8042016
:10371000CDF8108043F480638DE80C00CBF80030C6
:103720000DF1330302930DAB03930EAB059300230E
:1037300006932046DDE90A23FFF7F2FE08F0DF03D7
:10374000472B07460AD10D9BD81C03DBDBF804206E
:10375000934237DDA8F102085FFA88F8B8F1650FE7
:103760000D9915D8013942460BF150000D91FFF724
:1037700037FF0E9A8318012A8146CBF8103003DCFC
:10378000DBF80020D10738D50133CBF8103034E016
:10379000B8F1660F18D10029DBF8043009DDCBF849
:1037A00010101BB9DBF80020D20721D501330B44E0
:1037B0001CE01BB9DBF80020D00701D5023315E06F
:1037C000012313E04FF067080D9B0E9A934207DB2D
:1037D000DBF80020CBF81030D10709D5013305E024
:1037E000002BD4BFC3F1020301231344CBF81030E4
:1037F0000D9BCBF858304FF000099DF8333013B1D2
:103800002D238BF843300096204659460FAA2B46AD
:1038100000F05CF9013002D14FF0FF3052E1DBF8EB
:1038200000305A0505D4204629463A46DBF81030C8
:1038300008E1B8F1650F40F2D080DBE91201002207
:10384000002304F087FE50B320462946384A01235E
:10385000B0470130E0D00E9B0D9A9A4209DBDBF8AD
:103860000030D80705D4DBF800309F0700F1108145
:1038700007E1204629465246099BB0470130CBD08C
:1038800000270E9B013B9F42EDDA204629460BF1B3
:103890001A020123B0470130BED00137F1E70D9B7A
:1038A000002B29DC20462946214A0123B04701305C
:1038B000B2D00D9B2BB90E9B1BB9DBF80030D9079A
:1038C000D1D5204629465246099BB0470130A3D0A6
:1038D0004FF000080D9B5B4298452046294608DAC8
:1038E0000BF11A020123B047013095D008F101080D
:1038F000F0E73A460E9BA5E0DBF858200E9B9A4273
:10390000A8BF1A46002A914602DC4FF000081CE0CE
:10391000204629463A464B46B0470130F5D17BE771
:10392000BD8E0008B98E0008C58E0008C18E000843
:10393000128F0008204629460BF11A020123B047D6
:1039400001303FF469AF08F10108DBF85830B9F1F4
:10395000000FACBFC9EB03021A469045EADB07EB48
:1039600003080D9A0E9B9A4210DBDBF80030DA0751
:103970000CD40E9A1744C8EB07030D9FD21B934239
:10398000A8BF1346002B1F4608DC0EE02046294640
:103990005246099BB0470130EBD13DE7204629460E
:1039A0004246B04701303FF437AF4FF000080AE01D
:1039B000204629460BF11A020123B04701303FF49B
:1039C0002BAF08F101080D9A0E9B002FA3EB020309
:1039D000A8BFDB1B9845EBDB45E70E9A012A01DC0B
:1039E000DB0736D5204629463A460123B047013049
:1039F0003FF412AF204629465246099BB04701309A
:103A00003FF40AAFDBE912010022002304F0A2FD1B
:103A1000E8B90E9B204629467A1C013B1DE0204652
:103A200029460BF11A020123B04701303FF4F4AEEE
:103A300001370E9B013B9F42F1DB204629460BF1EB
:103A400050024B46B04701307FF40DAFE4E600274B
:103A5000EFE7204629463A460123B0470130ECD132
:103A6000DAE6204629460BF119020123B04701305E
:103A70003FF4D2AE0137DBF80C300F9A9B1A9F420D
:103A8000EFDBDBF80C000F9B9842B8BF184619E03B
:103A90000027F0E743F480638DE80C00CBF800309A
:103AA0000DF1330302930DAB03930EAB059300238B
:103AB0000693CDF810802046DDE90A23FFF730FD9C
:103AC000074640E611B0BDE8F08F00BF2DE9F8438E
:103AD00091461F468A680B69DDF820809342B8BF83
:103AE0001346C9F8003091F8432006460C4612B13F
:103AF0000133C9F800302368990642BFD9F8003075
:103B00000233C9F80030256815F006051CD094F87A
:103B100043302268003318BF012392061FD5E118F5
:103B20005A1C302081F84300224494F8451082F852
:103B30004310023313E03046394604F119020123E1
:103B4000C047013007D00135E368D9F800209B1A3F
:103B50009D42F0DBDBE74FF0FF30BDE8F8833046F5
:103B6000394604F14302C0470130F4D02268D9F845
:103B70000050E36802F00602042A08BF5D1B2269B8
:103B8000A3680CBF25EAE57500259342C4BF9B1AC4
:103B9000ED184FF00009A9450ADA3046394604F11C
:103BA0001A020123C0470130D5D009F10109F2E71B
:103BB0000020BDE8F88300002DE9FF410C461746C0
:103BC000227E6E2A984606460A9B01F1430100F0C8
:103BD000AF8012D8632A23D00AD8002A00F0BC8014
:103BE000582A40F0CB8084F84520DFF804E257E003
:103BF000642A1ED0692A1CD0C0E0732A00F0B0806D
:103C000009D86F2A2ED0702A40F0B880226842F07E
:103C1000200222603FE0752A24D0782A3BD0ADE014
:103C20001A68111D1960136884F8423004F14205C6
:103C3000A8E020681A6810F0800F02D0101D1860EC
:103C400008E010F0400F02F10400186002D0B2F951
:103C5000003000E01368002B3EDA2D225B4284F82E
:103C6000432039E020681A6810F0800F02D0101D40
:103C7000186007E010F0400F02F10400186001D056
:103C8000138800E01368227EDFF864E16F2A0CBF1E
:103C900008220A221CE07822DFF858E184F8452047
:103CA0002268186812F0800F00F104051D6003D12E
:103CB000550601D5038800E00368D00744BF42F0F1
:103CC000200222601BB9226822F02002226010220A
:103CD000002084F8430002E0DFF814E10A2265685E
:103CE000A560002DA2BF206820F00400206003B969
:103CF00065B10D46B3FBF2F002FB10331EF8033042
:103D000005F8013D03460028F4D100E00D46082ADD
:103D10000BD12368DA0708D5236962689A42DEBFAF
:103D2000302305F8013C05F1FF35491B21612EE0E8
:103D300025681A68606915F0800F03D0151D1D6095
:103D4000136808E015F0400F02F104051D601368C8
:103D500001D0188000E01860002323610D4616E0B2
:103D60001A68111D19601568626828460021FFF75E
:103D7000DDF908B1401B6060636804E004F14205AE
:103D800084F8422001232361002384F84330CDF8D6
:103D900000803046214603AA3B46FFF797FE0130DC
:103DA00002D14FF0FF301FE0304639462A462369E2
:103DB000C0470130F5D023689B0705D4E068039B1A
:103DC0009842B8BF18460FE00025E368039A9B1A93
:103DD0009D42F3DA3046394604F119020123C04707
:103DE0000130DED00135F0E704B0BDE8F08100BF5E
:103DF000C98E0008DA8E00082DE9F04F99468B68CD
:103E000015465A1EB2F5AE7F81BF6FF4AE7203EB5A
:103E1000020C40F25D138B600B680F4643F4F063B5
:103E200087B047F81C3B4FF0000B06460C4698BF86
:103E30004FF0000CB8465A46CDF80CB0CDF808B09B
:103E4000DA46CDF804B0A168002900F0EC802B68B8
:103E50001B78492B70D016D8392B0DD8312B40D276
:103E60002D2B46D002D82B2B43D0DCE02E2B00F09C
:103E70009280302B23D0D6E0452B00F09580462B46
:103E800077D0412B0CE0652B00F08E800AD8542BA4
:103E900075D002D84E2B34D0C5E0592B75D0612B8C
:103EA00046D0C0E06E2B2CD004D8662B61D0692B95
:103EB00042D0B8E0742B62D0792B66D0B3E0206892
:103EC00010F4807F0DD020F0800020600AF1010AFC
:103ED000BCF1000F00F08A8001310CF1FF3CA160C1
:103EE00084E012EB0B0F40F09E80216821F4C0713A
:103EF00005E02168080640F1968021F080012160EC
:103F000070E06AB9BAF1000F0CD1216801F4E060E9
:103F1000B0F5E06F06D121F4F0612160012261E08B
:103F2000022A5ED0BBF1010F1ED0BBF1040F1AE0D4
:103F3000012A78D1022255E0BBF1000F0ED1BAF16F
:103F4000000F73D1216801F4E060B0F5E06F71D12A
:103F500021F4F06121604FF0010B43E0BBF1030F4E
:103F600002D0BBF1050F5ED10BF1010B5FFA8BFBA9
:103F700038E0BBF1020F56D14FF0030B32E0BBF13A
:103F8000060F50D14FF0070B2CE0BBF1070F4AD1C1
:103F90004FF0080B26E02168880544D521F42071F4
:103FA0002160CDF804A01DE0216801F4A060B0F507
:103FB000806F04D0480536D5BAF1000F3AD0880595
:103FC0005CBF0198CDF80C8021F4F06158BFC0EBC4
:103FD0000A0041F4C07158BF029021604FF0000AFE
:103FE00000E0032288F8003008F10108A368013BD3
:103FF000A3602369013323616B68013B002B6B6075
:1040000003DD2B6801332B601DE7D4F88031059266
:1040100030462946CDF810C09847DDF810C0059A03
:1040200000283FF410AFBAF1000F03D0236823F447
:1040300080732360013A012A0ED8B8450AD9D4F812
:104040007C3118F8011D30462A4698472369013B08
:104050002361F2E70125AEE00BF1FF33062B22D8F6
:10406000BBF1020F12D9ABF1030B5FFA8BFBCBEB69
:10407000080BD84517D0D4F87C3118F8011D30460C
:104080002A4698472369013B2361F2E7B845E1D905
:10409000D4F87C3118F8011D30462A469847236928
:1040A000013B2361F2E72368DA052CD55B050CD5CB
:1040B000B845CFD9D4F87C3118F8011D30462A46CE
:1040C00098472369013B2361F2E718F8011C236933
:1040D000652903F1FF3308F1FF3B23610DD045292A
:1040E0000BD0D4F87C3130462A469847236918F81B
:1040F000021C013BA8F1020B2361D4F87C3130464D
:104100002A469847D846256815F0100552D188F8F8
:104110000050236803F4C063B3F5806F05D1019BA1
:10412000C3EB0A035A426BB916E0029BA3B1039B8F
:104130002A46591C30460A2301F0A8FA029BDDF8F2
:104140000C80C21A04F26F13984528BF04F5B778A3
:1041500040461B4900F092FB30463946002200F0F1
:1041600083FC2268D9F8003012F0020F06460F4691
:1041700003D01A1DC9F8002006E012F0040F03F165
:104180000402C9F8002003D01B68C3E900670DE0F2
:10419000D3F8008000F072FA10B900F06BFB03E076
:1041A0003046394604F050FAC8F80000E36801339D
:1041B000E36000E00025284607B0BDE8F08F00BFAF
:1041C000EB8E00082DE9F04115468A6880460C46C2
:1041D00032B98A69002A0CBF01224FF0FF328A608F
:1041E0002268D1065FBF1A68111D19601768002682
:1041F000A06900BB2368DA065EBF2B681B783B70A2
:104200002A686B6802F101022A60A26803F1FF3399
:1042100002F1FF326B6006F1010658BF0137A26060
:10422000EAB1002BE4DCD4F88031404629469847B7
:104230000028DDD013E0012807D12B6862691B78C4
:10424000D35C002BD6D1C6B109E0022807D12B6878
:104250000B4A1B78126813445B781B07CAD5236886
:1042600013F0100305D1E2680132E260A26902B1E5
:104270003B7023691E4426610020BDE8F08100BF29
:104280000C0200202DE9F04F9A46734B0C468346F2
:10429000164693E8070087B003AB83E807006F4B2F
:1042A000A1696F4A032918BF1A46A36800925A1ED3
:1042B000B2F5AE7F81BF6FF4AE7503EB050840F237
:1042C0005D13A360236804F11C0943F45063236069
:1042D00098BF4FF000084F4600233268019303A9AE
:1042E00051F8230011780222FEF720FF019B0028DD
:1042F00036D0012B0BD162682AB90822626022688D
:1043000042F400722260226822F4A0620BE0022BC9
:104310000AD1226802F4C061B1F5007F20D11021DA
:10432000616042F480722260A268511EA160BAB13D
:104330003268511C316012783A707268013A002A72
:1043400007F1010572600ADCD4F880210193584618
:1043500031469047002840D12F46019B00E02F4670
:104360000133032BB9D163680BB90A236360636817
:104370003C496069C91A00F0BBF93D460027A368B3
:1043800063B3316860690A78805C38B3302A226888
:104390000AD1100508D50137B8F1000F0AD0013352
:1043A00008F1FF38A36005E022F4106222600B7868
:1043B0002B7001357368013B002B736003DD33689C
:1043C0000133336005E0D4F88031584631469847D0
:1043D00020B9A368013BA360D1E700272368D90572
:1043E0000DD54D4509D915F8011CD4F87C31584636
:1043F0003246984705F1FF3845464D4527D022689B
:1044000012F010021BD12A706368009E584649467C
:10441000B0472268DAF8003012F0200F07D1D20737
:1044200005D51A1DCAF800201B68188004E01A1D63
:10443000CAF800201B681860E3680133E360C9EB29
:1044400005053D4427693D442561002000E0012029
:1044500007B0BDE8F08F00BFF08E00089957000844
:104460008D5600080C8F000838B5074C0546002013
:104470002060084611461A46FCF7A8F9431C02D1F1
:10448000236803B12B6038BD6C05002070B50E4663
:104490001446054618B183690BB9FEF705FC164BA7
:1044A0009C4201D16C6808E0144B9C4201D1AC687D
:1044B00003E0134B9C4208BFEC68A368013B002B50
:1044C000A36011DAA269934207DB23681E70236898
:1044D00019780A290BD1284601E0284631462246A0
:1044E000BDE8704001F010BA23681E7023685A1CA2
:1044F0002260187870BD00BF408E0008608E0008F2
:10450000808E0008838903F00903092B01D1FEF78F
:1045100045BB002070470000F8B50C46054618B1B1
:1045200083690BB9FEF7C0FB394B9C4201D16C6823
:1045300008E0384B9C4201D1AC6803E0364B9C420A
:1045400008BFEC68A2890023636093B29E065AD428
:1045500058071AD4D90605D4092342F040022B602B
:10456000A28150E01A070BD528462146FEF7ECFA47
:10457000002848D1A389A06023F00803A381A0618B
:10458000A38943F00403A38110E0616B71B104F1CE
:104590004403994202D02846FEF7EAFD236C63608B
:1045A0000020606313B1E36B2360F8BD23691BB97E
:1045B00028462146FEF75CFDA789BEB2B3070FD09F
:1045C0000123A381154B1649186806F00906FEF76A
:1045D000EFFC092EA78103D128462146FEF730FAC9
:1045E00022692260666A216A63692846B04700280A
:1045F00060600BDCA38917BF002243F0200343F067
:1046000040036260A3814FF0FF30F8BD0020F8BD89
:10461000408E0008608E0008808E0008A48E00087E
:104620000545000838B50C46054618B183690BB935
:10463000FEF73AFB0E4B9C4201D16C6808E00D4B33
:104640009C4201D1AC6803E00B4B9C4208BFEC6874
:1046500028462146FFF760FF38B96368013B636075
:1046600023685A1C2260187838BD4FF0FF3038BDDF
:10467000408E0008608E0008808E00080A4631F0E7
:10468000004110B503461BD00F48A2F580148442A8
:1046900010D902F1FF420C4802F5E002824209D92A
:1046A000B1F5801F08D3094A914207D1B3FA83F0CC
:1046B000400910BD042010BD032010BD002010BD16
:1046C0000028E6D1022010BDFFFFDF7F0000F07F51
:1046D00038B5064C0023054608462360FCF79EF9D2
:1046E000431C02D1236803B12B6038BD6C05002048
:1046F000F0B50A785E2A13BF4B1C8B1C4A78002148
:1047000008BF0121441E00F1FF0504F8011FAC425F
:10471000FBD10AB9581EF0BDC1F10104E7B28754BC
:1047200019782D2903F1010605D05D290ED079B144
:104730000A463346F2E75D785D2DF9D09542F7DB06
:1047400002330132AA428754FBDBE9E73046F0BD71
:104750001846F0BD00290CBF022200224FF48063EE
:1047600000F000B82DE9F0411D463D4B1E6804469F
:104770000F46904626B1B36913B93046FEF794FA56
:10478000384B9C4201D1746808E0374B9C4201D100
:10479000B46803E0354B9C4208BFF468B8F1020FDF
:1047A0005AD8002D58DB30462146FEF7CDF90023BC
:1047B0006360A361A3891B0603D530462169FEF718
:1047C000D7FCA389B8F1020F23F08303A38112D091
:1047D00037BB002D08BF4FF480652846FEF796FCD6
:1047E0000746C8B94FF48060FEF790FC074688B9C9
:1047F0004FF0FF3000E00020A38943F00203A381C3
:104800000023A36004F14703236023610123636154
:10481000BDE8F0814FF48065A38943F08003A38154
:10482000B8F1010F01BFA38943F00103A3816B42DB
:1048300008BFA3610E4BB362A389276003F0080091
:1048400080B22761656148B113F0030F18BF0025DE
:10485000A5600020BDE8F0814FF0FF30BDE8F08199
:1048600008020020408E0008608E0008808E00083C
:10487000292C0008004870470000C07F0EB400B526
:104880009CB04FF40271ADF814106FF00041049128
:1048900007914FF6FF711DABADF81610084953F89C
:1048A000042B029006900868019302A902F07CFF95
:1048B000029B00221A701CB05DF804EB03B0704735
:1048C000080200200EB430B59CB01FAC4FF401724A
:1048D00054F8045BADF814200290069000F06BF8D9
:1048E0000B4B0B9300230F9314934FF6FF73ADF80C
:1048F0001630084B0390079002A9186801942A46C5
:10490000234603F09DF81CB0BDE8304003B070476B
:104910003B4900080802002010B50C46B1F90E1002
:1049200003F0DCF90028ABBF636DA3891B1823F4E7
:104930008053ACBF6365A38110BD002070472DE993
:10494000F0411D468B89DB0507460C46164605D50A
:10495000B1F90E100022022302F074FAA389B4F90F
:104960000E1023F48053A381384632462B46BDE80F
:10497000F04101F01DB810B50C46B1F90E1002F06F
:1049800061FA431CA38915BF606523F4805343F487
:104990008053A38118BFA38110BDB1F90E1001F09F
:1049A00085B810F8012B11F8013B012A28BF9A4263
:1049B000F7D0D01A7047034613F8012B002AFBD119
:1049C000181A0138704770B5AAB1451E01396B78C5
:1049D00011F8014FA34205F1010606D16FF0010461
:1049E000641B1444E04202D11C46181B70BD3546BE
:1049F000002BECD1F8E7104670BD30B5036811F814
:104A0000014B01334CB11A78A2F14105192D98BF21
:104A10002032A242F3D0002030BD0360012030BD1F
:104A20002DE9F0410F46904602F006FD04460D4682
:104A3000B8F1000F11D0C7F30A53C3F16B03002B79
:104A40000BDD1B0503F17F55002405F540152246BB
:104A50002B4603F017FBBDE8F08120462946BDE850
:104A6000F0810000000000002DE9F04F9FB000230E
:104A700083468A4616921A934FF000084FF00009B9
:104A80001991199B1A780D2A05D8092A13D2002AE0
:104A900000F0BE8112E02B2A06D02D2A02D0202A57
:104AA0000CD108E0012200E0002209925A1C199260
:104AB0005B782BB9ACE101331993E2E7002309934A
:104AC000199C2378302B5CD16378582B01D0782B3C
:104AD0004CD11AAB0093099B0193584619A9B14ACE
:104AE0001BAB01F0DAFE10F00706054600F09B85CF
:104AF000062E05D1013400231994099300F093BDCB
:104B00001A9A3AB11CA8352102F084FD58461A9928
:104B100002F0FAF91B9A062E21D8DFE806F0040D00
:104B200008171C0D04004FF00009C84617E0DDF817
:104B30007080DDF8749012E01D9BDDF8708002F249
:104B4000334223F4801343EA025908E0DFF8589215
:104B50004FF0000803E06FF000494FF0FF382907DD
:104B600040F1618549F0004900F05DBD199B5A1C78
:104B700019925B78302BF9D0002B00F0548501237B
:104B800000E0002300260493199B05930396354605
:104B9000199C2778A7F13003DAB2092A10D8082D1A
:104BA000D8BF03994FF00A02D8BF02FB013304F1CA
:104BB0000104D4BF039302FB063601351994E7E7DD
:104BC000584602F03BF901680291584602F036F966
:104BD0000068FFF7F0FE029902462046FFF7F3FE59
:104BE00028B100203B462C46029007465DE002902B
:104BF000584602F023F90068FFF7DDFE199B029981
:104C00001A1819921B5C002D47D12846302B05D16C
:104C1000199B5A1C199201305B78F7E7A3F1310216
:104C2000082A48D8199A0290002005920446303B81
:104C300000F101012BD0029A0A4402920719214681
:104C4000B94213D0013101F1FF3EBEF1080F06DC7D
:104C5000039A4FF00A0E0EFB02F20392F0E71029BE
:104C6000DCBF4FF00A0E0EFB06F6E9E720440828E9
:104C700000F1010405DC039A0A2101FB02330393CE
:104C800004E0102CDCBF0A2101FB06360021199B31
:104C9000581C19905B78084602E02C4608460291A1
:104CA000A3F130010929C2D90127652B01D0452B79
:104CB00060D174B905E0652B40F0C38400230293F2
:104CC000012728B9049B002B00F0A280044600E0D5
:104CD0000024DDF864A00AF1010319939AF8013069
:104CE0002B2B07D02D2B02D04FF0000C09E04FF0FA
:104CF000010C01E04FF0000C0AF1020319939AF83D
:104D00000230A3F13001092932D81946302904D1E3
:104D1000199B591C19915978F8E7A1F1310EBEF190
:104D2000080F0B4626D8199B06933039199B03F1BF
:104D3000010ECDF864E05B78A3F13002092A05D8B2
:104D40004FF00A0E0EFB01313039EFE7069AC2EB45
:104D50000E0EBEF1080F44F61F6E03DC7145A8BFAE
:104D6000714600E07146BCF1000F04D0494202E0F8
:104D7000CDF864A00021002C54D1002840F05384C9
:104D8000049A002A40F04F84002F41D14E2B20D0AE
:104D900002DC492B0AD03BE0692B07D06E2B18D0E0
:104DA00036E000BF588F00080000F07F19A8A64920
:104DB000FFF723FE60B3199BA449013B19A819937F
:104DC000FFF71BFE10B9199B01331993DFF894927A
:104DD0001AE019A89E49FFF710FEC8B1199B1B786D
:104DE000282B0FD119A89B491CAA01F08DFF05287B
:104DF00008D11D9BDDF8708043F0FF4949F4E009BC
:104E000000F011BCDFF860924FF0000800F00BBC1E
:104E1000169BCDF864A0002B00F0108400230993AA
:104E200000F003BC029B0398CB1A002D14BFAA46C6
:104E3000A246102C25460493A8BF102503F0ACF819
:104E4000092D8046894613DD834B03EBC50353E9E7
:104E5000122303F017F980463046894603F09CF888
:104E600002460B464046494602F05AFF80468946B4
:104E70000F2C37DC049B002B00F0D58324DD162B90
:104E800007DC754A02EBC302D2E900014B464246F9
:104E900015E0049AC4F125039A4223DC6E4DC4F157
:104EA0000F0405EBC403D3E9000142464B4603F06F
:104EB000E9F8049B1C1B05EBC405D5E9002303F0AE
:104EC000E1F880468946AEE3049B13F1160F09DB37
:104ED000614AA2EBC30240464946D2E9002303F0EF
:104EE000FBF9EEE7049B651B1D44002D54DD15F016
:104EF0000F020AD0584B03EBC203D3E9000142462C
:104F00004B4603F0BFF88046894635F00F0500F0A8
:104F1000B180B5F59A7F0BDD0024A2460594039479
:104F20002223CBF80030DFF83C914FF0000880E1FD
:104F30004946DFF838912D11404600274E46012D95
:104F40000ADDEA0703D5D9E9002303F09BF801370E
:104F50006D1009F10809F2E78046A1F1547906EBDA
:104F6000C70642464B46D6E9000103F08BF821F014
:104F7000004389460A461B0D38491B058B42804673
:104F8000CAD8A1F580118B4286BFDFF8E4904FF0BC
:104F9000FF3802F154796DE06CD06D4215F00F02CC
:104FA0000AD02D4B03EBC20340464946D3E9002308
:104FB00003F092F9804689462D115BD01F2D04DD48
:104FC0000024A246059403942CE115F0100F0CBFA9
:104FD00000236A23224E029340464946002D08DDF5
:104FE000EB0703D5D6E9002303F04CF86D10083623
:104FF000F4E7029B80468946EBB1C1F30A53C3F143
:105000006B03002B0A4616DD1F2B0EDD342BDEBF93
:10501000203B4FF0FF3101FA03F34FF00008CCBF03
:105020004FF05C7903EA020905E04FF0FF3202FA23
:1050300003F303EA0008404649460022002303F038
:1050400089FA0028BCD117E0BE8E000870900008D5
:10505000C68E0008188F0008889000080000A07C09
:10506000308F00080000F07F0000F8FF509100082A
:10507000FFFFEF7F00230293039B0093584605999F
:105080005246234601F095FF059000283FF444AFB7
:10509000049A049B002AC3F100034FF00004A8BF48
:1050A00000231293A246059B5846596801F0F7FE6B
:1050B000039000283FF434AF059B1A69059B023228
:1050C00003F10C0192000C30FEF73FF81BAB00938C
:1050D0001CAB0193584642464B46CDE90A8902F083
:1050E0001EFA1A9000283FF41BAF5846012101F028
:1050F000EDFF824600283FF413AF049B02991C9DEC
:1051000023EAE37308931B9B002BADBF129A089A06
:10511000129ED618B8BFD21AA3EB01032B446FF42A
:105120007F71A8BF089A8B42C5F1360580F2868050
:10513000C91A1F29A5EB0105C8BFB3494FF00100EB
:10514000D5BF00FA01F3C91A139300FA01F3D9BFCE
:1051500000230693069313907719029BB7421544D8
:105160001D443B46A8BF3346AB42A8BF2B46002B8D
:10517000C2BFFF1AED1AF61A129B002B63D1002F43
:105180007ADC089B002B40F08180002D00F38880A2
:10519000002E00F38F8058461A99039A02F0EDF81A
:1051A000044600283FF4BCAEC36808930023C360E4
:1051B000514602F0C6F8002880F28A80089B002B36
:1051C00040F00A82B8F1000F40F00682C9F31303E1
:1051D000002B40F0018229F000431B0D1B05B3F1A9
:1051E000D66F40F2F9816369002B6DD02146012210
:1051F000584602F053F85146044602F0A2F800283F
:1052000040F3EA8129F00043029A1B0D1B05002A96
:1052100000F08D80B3F1D66F00F38980B3F15C7F2D
:1052200000F3DC8122234FF000084FF00009CBF897
:105230000030059B002B40F0E281F4E1002306934F
:105240000123139388E7514658461A4601F0D8FFC8
:10525000824600283FF464AE584651461A9A01F03F
:105260003EFF179000283FF45BAE58461A9901F0B4
:105270004BFE179B1A9382E758461A993A4602F05A
:105280000DF81A9000287FF47CAF49E65846039940
:10529000089A01F0B5FF039000287FF476AF3FE64F
:1052A000584603992A4601F0F9FF039000287FF43D
:1052B0006FAF35E651465846324601F0EFFF824661
:1052C00000287FF468AF2BE62369012B8EDC83E195
:1052D00062D1089AC9F3130322B34C498B424A4660
:1052E0002ED1029B414663B1494B1340B3F1D46FB9
:1052F00007D81B0DC3F16B034FF0FF3000FA03F327
:1053000001E04FF0FF3399421AD1424B9A4202D149
:1053100001313FF405AE3E4B134003F580194FF0C9
:10532000000859E163B9B8F1000F09D16AE7A3F5A4
:1053300080136FEA13596FEA09594FF0FF384BE1B8
:10534000069B13B113EA090F02E0139B13EA080F3F
:1053500000F04281089B029A4046494653B1FFF74C
:105360005FFB02460B46DDE90A0102F0D9FC8046EC
:10537000894631E1FFF754FB02460B46DDE90A019D
:1053800002F0CCFC002200238046894603F0E2F8BC
:1053900000287FF447AF1FE12046514602F011F983
:1053A00000224FF0804306460F4603F0E7F800283E
:1053B00041D0089B13B10022174B0FE0B8F1000F4A
:1053C00003D1C9F313033BB90DE0B8F1010F03D1C9
:1053D000B9F1000F3FF426AF104B0022CDE90623B0
:1053E00000260D4F3CE03046394600220A4B03F0C0
:1053F000BBF8B8B9304639460022094B02F042FEEC
:1054000006460F4610E000BFE3FBFFFFFFFF0F0063
:105410000000F07FFFFFEF7F0000F03F0000F0BFD3
:105420000000E03F944F002607F1004314961593C7
:10543000DDE9142312E0304639468F4B002202F09A
:1054400021FE089B06460F4623B901F100430E904A
:105450000F9301E0CDE90E67DDE90E23CDE90623C8
:1054600029F000452D0D854B2D059D422DD1DDE9FF
:105470000A23A9F1547940464946CDE90C2301F0AD
:10548000DBFF02460B46DDE9060102F0FBFD0246AA
:105490000B464046494602F043FC21F000431B0DF9
:1054A000774A1B05934280460CD9764B0D9A9A4257
:1054B00003D10C9B01333FF433ADDFF8C8914FF0BB
:1054C000FF3878E001F154793DE0029B3BB3B5F140
:1054D000D46F24D8304639465FA3D3E9002303F0C4
:1054E0004DF8B8B13946304603F08EF8002808BFB1
:1054F000012002F051FD089B06460F4623B901F139
:1055000000431090119301E0CDE91067DDE910230D
:10551000CDE90623079B03F1D6635B1B0793DDE907
:105520000A01DDE9068901F087FF02460B46404685
:10553000494602F0A7FD02460B46DDE90A0102F0EA
:10554000EFFB80468946029BABBB29F000431B0D55
:105550001B059D422FD139463046CDF8189003F0F7
:105560002BF802F029FD0B4602463946304602F080
:10557000D5FB089BDDF818C006460F462BB9B8F1DD
:10558000000F02D1CCF313037BB13046394634A36C
:10559000D3E9002302F0E8FF88BB3046394632A346
:1055A000D3E9002302F0FEFF04E031A3D3E9002396
:1055B00002F0DAFF18BB58461A9901F0A5FC5846CC
:1055C000039901F0A1FC5846514601F09DFC584654
:1055D000214601F099FC66E5029B83B12A4B0D93AD
:1055E00000230C9340464946DDE90C2302F04AFDB6
:1055F0008046894619B910B92223CBF800305846A5
:105600001A9901F081FC5846039901F07DFC584637
:10561000514601F079FC5846059901F075FC584651
:10562000214601F071FC169B13B1169A199B136069
:10563000099B1BB1404609F1004107E0404649463D
:1056400004E0002402940127FFF731BB1FB0BDE83E
:10565000F08F00BFAFF300800000C0FFFFFFDF410D
:105660009535A094FFFFDF3F35E5AF350000E03F03
:105670009535A094FFFFCF3F0000E03F0000E07FA2
:10568000FFFF9F7CFFFFEF7F000050392DE9F047BF
:10569000404CD4F800900F463D4615F801EB09EB5D
:1056A0000E04667806F0080404F0FF060CB12F46DD
:1056B000F2E774462D2C03D1BD1C7C78012603E053
:1056C0002B2C04BF7C78BD1C13B1102B0AD15AE0DF
:1056D000302C56D12C7804F0DF04582C4CD16C7847
:1056E00010230235002E14BF4FF000486FF0004821
:1056F0000027B8FBF3FABE4603FB1A8809EB040C3B
:105700009CF801C01CF0040F01D0303C0BE01CF0F1
:10571000030C1BD0BCF1010F0CBF4FF0370C4FF046
:10572000570CCCEB04049C4210DAB7F1FF3F0AD0CF
:10573000D64506D801D1444503DC03FB0E4E0127B4
:1057400001E04FF0FF3715F8014BD7E77C1C73469B
:105750000AD1002E4FF0220114BF4FF000436FF02A
:10576000004301602AB911E00EB1CEF100036AB125
:1057700007B1691E116009E03024002BB2D1082363
:10578000B0E70A23AEE7302CACD1A3E71846BDE85A
:10579000F08700BF0C0200202DE9F0473B4CD4F805
:1057A00000900E46354615F801EB09EB0E046778BC
:1057B00007F0080404F0FF070CB12E46F2E7744628
:1057C0002D2C03D1B51C7478012703E02B2C04BFCA
:1057D0007478B51C13B1102B0AD151E0302C4DD187
:1057E0002C7804F0DF04582C43D16C781023023558
:1057F0004FF0FF380026B8FBF3F803FB08FA6FEA16
:105800000A0AB64609EB040C9CF801C01CF0040F10
:1058100001D0303C0BE01CF0030C1BD0BCF1010F9D
:105820000CBF4FF0370C4FF0570CCCEB04049C42EC
:1058300010DAB6F1FF3F0AD0C64506D801D154456B
:1058400003DC03FB0E4E012601E04FF0FF3615F896
:10585000014BD7E7741C734603D122230360334600
:1058600002E00FB1CEF100036AB106B1691E11600A
:1058700009E03024002BBBD10823B9E70A23B7E79E
:10588000302CB5D1ACE71846BDE8F0870C020020FB
:105890002DE9F0410C46496B04F1440399421CD1B7
:1058A0004FF48061FDF7A8FC18B94FF0FF30BDE858
:1058B000F0814FF48063A36394F84630606380F80E
:1058C000FF3394F8453080F8FE3394F8443080F884
:1058D000FD3300F2FD30206012E0A66B77003A46FF
:1058E00001F0E2FE05460028DFD000EB0608404646
:1058F00029463246FDF729FCC4F800806563A7639A
:105900000020BDE8F081000070B50D461446064643
:1059100018B183690BB9FDF7C7F9224B9C4201D13D
:10592000746808E0204B9C4201D1B46803E01F4B2F
:105930009C4208BFF468A369A360A3891A0709D52C
:1059400023693BB123682069181A63699842EDB254
:105950000FDB08E03046214600F03CF80028F1D08B
:105960004FF0FF3070BD30462146FDF7EDF80028BE
:10597000F6D1A368013BA36023685A1C22601D7006
:1059800063690130984204D0A389DB0707D50A2D4B
:1059900005D130462146FDF7D7F80028E0D128464A
:1059A00070BD00BF408E0008608E0008808E000829
:1059B00038B5074C054600202060084611461A46B7
:1059C000FAF796FF431C02D1236803B12B6038BD60
:1059D0006C050020314B70B51D6806460C4625B19C
:1059E000AB6913B92846FDF75FF92D4B9C4201D1F5
:1059F0006C6808E02B4B9C4201D1AC6803E02A4B59
:105A00009C4208BFEC68A3899AB211071DD4D50641
:105A100002D40922326038E0500712D5616B41B1DF
:105A200004F14403994202D03046FDF7A1FB002364
:105A30006363A38923F02403A381002363602369A4
:105A40002360A38943F00803A38123694BB9A38989
:105A500003F42073B3F5007F03D030462146FDF7F1
:105A600007FBA38913F0010205D00022A26062693E
:105A70005242A26103E0990758BF6269A26022699D
:105A80004AB903F0800080B230B143F04003A381F3
:105A90004FF0FF3070BD002070BD00BF0802002035
:105AA000408E0008608E0008808E000838B5064CD5
:105AB0000023054608462360FAF704FF431C02D181
:105AC000236803B12B6038BD6C0500202DE9F74F2A
:105AD00003690C69A3428046C0F28180013C01F158
